:10000000ACC100000C9431440C9406440C94DB43C6
:100010000C94B0430C9485430C945A430C942F4396
:100020000C940443CBC10000C9C10000C7C100004B
:10003000C5C10000C3C10000C1C10000BFC10000B4
:10004000BDC10000BBC10000B9C10000B7C10000C4
:10005000B5C10000B3C10000B1C100000C94BA42A8
:10006000ADC100000C9484420C945A42A7C1000018
:10007000A5C10000A3C10000A1C100009FC10000F4
:100080009DC100009BC1000099C1000097C1000004
:1000900095C1000093C1000091C100000C945C4424
:1000A0008DC100008BC1000089C1000087C1000024
:1000B00085C1000083C1000081C100007FC1000034
:1000C0007DC100007BC1000079C1000077C1000044
:1000D00075C1000073C1000071C100006FC1000054
:1000E0006DC1000000407A10F35A00A0724E18094A
:1000F0000010A5D4E80000E87648170000E40B548F
:10010000020000CA9A3B000000E1F505000080965D
:100110009800000040420F000000A086010000008F
:10012000102700000000E803000000006400000049
:1001300000000A00000000000100000000002C7612
:10014000D888DC674F0823DFC1DFAE59E1B1B7962D
:10015000E5E3E453C63AE651997696E8E6C284268A
:10016000EB898C9B62ED407C6FFCEFBC9C9F40F266
:10017000BAA56FA5F490055A2AF75C936B6CF967E2
:100180006DC11BFCE0E40D47FEF520E6B500D0EDA7
:10019000902E0300943577050080841E080000200F
:1001A0004E0A000000C80C333333330F986E1283AD
:1001B0001141EF8D2114893BE65516CFFEE6DB1881
:1001C000D1844B381BF77C1D901DA4BBE424203246
:1001D00084725E228100C9F124ECA1E53D27313112
:1001E0003A33393A3231004E6F7620313420323092
:1001F00032300053746172747570204672656520E8
:1002000052414D3A20007C3C3E5E2B3D3F2F5B5DD2
:100210003B2C2A225C00005EBCE2613FDD83C29C75
:100220007E20A3FD1F41009D23BE46DB65F88C1197
:10023000AF32CA57E97400002100240027002A00C9
:100240002D003000330001010000040107010A0104
:1002500000002200250028002B002E003100340071
:1002600002010000050108010B010000200023002D
:10027000260029002C002F0032000001000003019D
:100280000601090105050505070508080808020219
:1002900002020A0A08080404040401010101010120
:1002A00001010303030303030303040707070C0C03
:1002B0000C0C0C0C0C0C02020202060606060606CA
:1002C00006060B0B0B0B0B0B0B0B0102102020086F
:1002D00008102040102040800201020108040201A1
:1002E0000102040810204080804020100804020110
:1002F0008004020180402010080402010804020169
:1003000001020408102040800102040810204080EF
:1003100000000A0B02090C0D0E080703040100007F
:1003200000000000000000000000000000000000CD
:10033000000000000000000000000000121110008A
:1003400000000000000000000000000000000000AD
:10035000000000000000C5458E4A11241FBECFEFEB
:10036000D1E2DEBFCDBF00E00CBF15E0A0E0B2E0FF
:10037000E8E0FBEA00E00BBF02C007900D92A0325C
:10038000B107D9F723E1A0E2B5E001C01D92AB3976
:10039000B207E1F711E0CCEAD1E000E006C0219716
:1003A0000109802FFE010E944151CB3AD10780E024
:1003B0000807A9F70E94A5470C94735521CE2091F8
:1003C000110981E0213208F044C08091ED088111CB
:1003D000FCCF8091100992E09093ED0891E090930A
:1003E000EC089FEF9093EB081092EA082093E9083D
:1003F000A0EFB8E0E9ECF8E090E0291331C01092EA
:10040000C8089091C808880F892B8093C8088091EC
:10041000C708813049F51092C7088091C8088093B9
:10042000BB008091BC0083FDF8CF85EC8093BC00BD
:100430008091ED088230E1F38091EB088F3FB1F0BD
:100440008091EB088032A1F08091EB08803391F02D
:1004500084E01092EF08109211091092EE080895AE
:100460003D9131939F5FC9CF85EEE0CF80E0F1CF22
:1004700082E0EFCF83E0EDCFE2E1F9E0A089B1893E
:1004800082E08C93A485B5851C92A685B78580E112
:100490008C93108EA489B58986E08C93A289B38948
:1004A0008C9180618C93A289B3898C9188608C93A4
:1004B000A289B3898C9180688C930288F389E02D9E
:1004C00080818F7D808308959C0180910913909194
:1004D0000A138A309105F1F0019690930A138093E4
:1004E000091302976CF080910713909108130196FD
:1004F0006AE070E00E942E519093081380930713D6
:10050000E0910713F0910813EE0FFF1FE55FFC4E1B
:1005100031832083089580917B00877F80937B00C7
:1005200083E480937C0080917A00806480937A00D9
:1005300080917A0086FDFCCF8091780090917900BF
:100540000895FC01818D928D089508950895AF92CC
:10055000BF92CF92DF92EF92FF920F931F93CF93B0
:10056000DF936C017B018B01040F151FEB015E0112
:10057000AE18BF08C017D10759F06991D601ED91A7
:10058000FC910190F081E02DC6011995892B79F736
:10059000C501DF91CF911F910F91FF90EF90DF90F8
:1005A000CF90BF90AF900895FC01538D448D252FBF
:1005B00030E0842F90E0821B930B541710F0CF96FD
:1005C000089501970895FC01918D828D981761F02F
:1005D000A28DAE0FBF2FB11D5D968C91928D9F5F46
:1005E0009F73928F90E008958FEF9FEF0895FC0125
:1005F000918D828D981731F0828DE80FF11D858DD8
:1006000090E008958FEF9FEF0895FC01918D228D6A
:10061000892F90E0805C9F4F821B91098F739927EF
:10062000089582E199E0F1DF21E0892B09F420E0CF
:10063000822F0895FC01A48DA80FB92FB11DA35AD4
:10064000BF4F2C91848D90E001968F739927848FF2
:10065000A689B7892C93A089B1898C918370806415
:100660008C93938D848D981306C00288F389E02DB6
:1006700080818F7D80830895EF92FF920F931F9367
:10068000CF93DF93EC0181E0888F9B8D8C8D981345
:100690001AC0E889F989808185FF15C09FB7F89451
:1006A000EE89FF896083E889F9898081837080649D
:1006B00080839FBF81E090E0DF91CF911F910F91E8
:1006C000FF90EF900895F62E0B8D10E00F5F1F4FF7
:1006D0000F731127E02E8C8D8E110BC00FB607FC07
:1006E000FACFE889F989808185FFF5CFCE01A2DFB5
:1006F000F2CFEB8DEC0FFD2FF11DE35AFF4FF0828F
:100700009FB7F8940B8FEA89FB8980818062D0CFF4
:10071000CF93DF93EC01888D8823B1F0AA89BB8940
:10072000E889F9898C9185FD03C0808186FD0CC024
:100730000FB607FCF7CF8C9185FFF2CF808185FF44
:10074000EDCFCE0177DFEACFDF91CF91089580E042
:1007500090E0892B21F065DF81110E94000080E08C
:1007600090E0892B49F080E090E0892B29F00E94ED
:10077000000081110E94000080E090E0892B49F088
:1007800080E090E0892B29F00E94000081110E94F6
:10079000000080E090E0892B49F080E090E0892B18
:1007A00029F00E94000081110C94000008958150EE
:1007B000823108F05AC0E82FF0E08827ED51FC4F55
:1007C0008F4F0C94415103040704F503FB03FF030F
:1007D00035040A04100414041A041E042204280414
:1007E0002C043504300436043A04809180008F775D
:1007F000809380000895809180008F7DF9CF809153
:100800008000877FF5CF84B58F7784BD089584B548
:100810008F7DFBCF8091B0008F778093B0000895DB
:100820008091B0008F7DF9CF809190008F77809379
:1008300090000895809190008F7DF9CF8091900075
:10084000877FF5CF8091A0008F778093A0000895D7
:100850008091A0008F7DF9CF8091A000877FF5CF98
:10086000809120018F77809320010895809120014D
:100870008F7DF9CF80912001877FF5CFCF93DF93D4
:10088000282F30E0F901E05FFC4F8491F901E65335
:10089000FD4FD491F901EC57FD4FC491CC2399F051
:1008A000811185DFEC2FF0E0EE0FFF1FE659FD4FC1
:1008B000A591B491EC91ED2381E090E009F480E002
:1008C000DF91CF91089580E090E0FACF1F93CF930E
:1008D000DF93282F30E0F901E05FFC4F8491F901AC
:1008E000E653FD4FD491F901EC57FD4FC491CC2351
:1008F000A1F0162F81115BDFEC2FF0E0EE0FFF1F50
:10090000E05BFD4FA591B4918FB7F894EC91111174
:1009100008C0D095DE23DC938FBFDF91CF911F916C
:100920000895DE2BF8CFCF93DF9390E0FC01E653E0
:10093000FD4F24918C579D4FFC0184918823C9F071
:1009400090E0880F991FFC01EA5CFD4FA591B491DE
:10095000FC01E05BFD4FC591D49161110DC09FB7C3
:10096000F8948C91209582238C9388812823288366
:100970009FBFDF91CF910895623051F49FB7F894F3
:100980003C91822F809583238C93E8812E2BEFCF8F
:100990008FB7F894EC912E2B2C938FBFEACF3FB7F3
:1009A000F8948091250690912606A0912706B09193
:1009B000280626B5A89B05C02F3F19F00196A11D5A
:1009C000B11D3FBFBA2FA92F982F8827BC01CD0199
:1009D000620F711D811D911D42E0660F771F881FF8
:1009E000991F4A95D1F708958F929F92AF92BF9227
:1009F000CF92DF92EF92FF926B017C01D0DF4B012F
:100A00005C01C114D104E104F104B1F0C8DF68193C
:100A100079098A099B09683E73408105910588F32D
:100A200021E0C21AD108E108F10888EE880E83E0BF
:100A3000981EA11CB11CE5CFFF90EF90DF90CF90E6
:100A4000BF90AF909F908F9008952FB7F8946091CA
:100A500021067091220680912306909124062FBFD3
:100A600008950895CF93CFB7F89480911F06811110
:100A700023C0E9EBF2E08491EFEFF2E09491E82FEC
:100A8000F0E0EE0FFF1FEA5CFD4FA591B491EC91F1
:100A9000E92319F461E085E319DF61E085E343DFD1
:100AA0008CB580618CBD8CB580648CBD61E084E3C5
:100AB0003ADF61E083E337DF80911F068F5F809329
:100AC0001F06CFBFCF91089587E0D8DE892BE1F7CD
:100AD000089561E08AE0FACE60E08AE0F7CEC2DFF6
:100AE00061E08AE020DF60E087E01DDF61E089E00F
:100AF0001ADF61E085E3EADE61E08AE0E7DE60E0DC
:100B000089E0E4CECF93DF931F92CDB7DEB7698340
:100B1000DC01ED91FC910280F381E02D41E050E099
:100B2000BE016F5F7F4F19950F90DF91CF910895B0
:100B300021E0FC0184858F3F09F420E0822F089595
:100B4000CF93DF931F92CDB7DEB76983DC01ED91C0
:100B5000FC910280F381E02D41E050E0BE016F5F27
:100B60007F4F19950F90DF91CF910895FC0120815F
:100B70002EBD9B012150310941F051810DB407FE7A
:100B8000FDCF4EB55EBD4193F5CF61507109860F23
:100B9000971F0DB407FEFDCF2EB5FC0120830895ED
:100BA000F0E0E0E0808180830895F0E0E0E0808183
:100BB00080830895982F990F990F990F80E0905492
:100BC0000895CF93DF931F92CDB7DEB76983DC0121
:100BD000ED91FC910280F381E02D41E050E0BE01F7
:100BE0006F5F7F4F19950F90DF91CF910895CF934D
:100BF000DF931F92CDB7DEB76983DC01ED91FC91E5
:100C00000280F381E02D41E050E0BE016F5F7F4F35
:100C100019950F90DF91CF910895FC019485FB0108
:100C20008485981303C081E0983008F080E008952F
:100C3000CF93DF931F92CDB7DEB76983DC01ED91CF
:100C4000FC910280F381E02D41E050E0BE016F5F36
:100C50007F4F19950F90DF91CF910895FC01848506
:100C600095850895FC018489958908952FE433E0E2
:100C7000FC0131832083FB0140895189628973899A
:100C8000FC0142835383648375830895DC01ED91F5
:100C9000FC91048CF58DE02D1994DC0180E061500D
:100CA00090F09D919827E92FEF70F0E0EA5EFD4FFC
:100CB0002491E92FE295EF70F0E0EA5DFD4FE491B9
:100CC000822F8E27ECCF0895DC012C911196ED91A7
:100CD000FC91F8948181822B81839281322F30950F
:100CE0009323928387E090E00197F1F7818183233A
:100CF000818383E290E00197F1F790817894EFECA3
:100D0000F0E03197F1F7922381E009F480E0089553
:100D1000FC0190810180F281E02D292F209560FF58
:100D200014C0F8948281822382838181892B8183FC
:100D3000A3E2B0E01197F1F78281982B9283789427
:100D400087ED90E00197F1F70895F894828182236E
:100D500082838181892B8183AFEFB0E01197F1F716
:100D60008281982B928378948FE090E0EBCFDF9292
:100D7000EF92FF920F931F93CF93DF93EC01D62E48
:100D8000E42E08E010E0FF24F39461E08D2D8F2124
:100D900009F460E0CE01BCDFFF0C01501109A9F796
:100DA000E11010C0F894E981FA81918188818095E1
:100DB00089238183E981FA819281888180958923C1
:100DC00082837894DF91CF911F910F91FF90EF90E4
:100DD000DF900895EF92FF920F931F93CF93DF93CD
:100DE0008C017B0140E065E5C2DFE70188E0E80EA9
:100DF000F11C699140E0C801BADFCE15DF05C9F7E3
:100E0000DF91CF911F910F91FF90EF900895FC011A
:100E100090810180F281E02DF8948181292F209525
:100E20008223818378943DE743E050E0315029F1FB
:100E3000DA011197F1F780818923C1F3F894828157
:100E4000822382838181892B81837894ABE7B7E009
:100E50001197F1F7F894818182238183A3E1B1E0B6
:100E60001197F1F78081982381E009F080E0789470
:100E7000E3E6F6E03197F1F7089580E008958F9268
:100E80009F92AF92BF92CF92DF92EF92FF920F9319
:100E90001F93CF93DF938C017A01FC0186819781A8
:100EA00099DF40E06EEBF8018681978160DFE70112
:100EB0005701F9E0AF0EB11CF8018680978088E0F9
:100EC000C82ED12CF12CEE24E394C401FDDE811157
:100ED000FE28EE0CF1E0CF1AD108B9F7F992AC1662
:100EE000BD0651F7F8018681978191DF91E081304D
:100EF00009F090E0892FDF91CF911F910F91FF9022
:100F0000EF90DF90CF90BF90AF909F908F9008951B
:100F1000EF92FF920F931F93CF93DF9300D000D0F7
:100F200000D0CDB7DEB78C017B01FC0186819781B3
:100F30006EDF811102C080E01EC0AE014F5F5F4FC7
:100F4000B701C8019CDF8823B1F368E0CE010196A8
:100F5000A4DE99858913EFCF8D818F33C9F020F4FA
:100F60008F3149F789E007C08F3521F08F3719F7A6
:100F70008CE001C08BE029960FB6F894DEBF0FBE5F
:100F8000CDBFDF91CF911F910F91FF90EF9008950A
:100F90008AE0F1CF089561E0FC01848197DC8091C3
:100FA0000F06811110920F0608958EBD00000DB43A
:100FB00007FEFDCF8EB50895CF93DF931F92CDB777
:100FC000DEB789838981F1DF2AE030E0000021501B
:100FD0003109E1F70F90DF91CF910895CF93DF931F
:100FE000D82FC62F80EEE8DF83E290E00197F1F77B
:100FF0008D2FE2DF8C2FE0DFC11104C08EEEDF9178
:10100000CF91DACFDF91CF910895DF92EF92FF92E7
:101010000F931F93CF93DF93D82EE92E8B01F42EDD
:10102000812FCADF802FC8DFCD2DDE2D0C0F1D1FB5
:10103000C017D10719F08991BFDFFACF81E0F8120C
:1010400009C08EEEDF91CF911F910F91FF90EF902D
:10105000DF90B2CFDF91CF911F910F91FF90EF9072
:10106000DF900895DF92EF92FF920F931F93CF933B
:10107000DF937C01C62FD42E862F9EDF8701D0E020
:10108000C8018E199F098C179D072CF4F8018191D6
:101090008F0192DFF5CFF1E0DF1209C08EEEDF9114
:1010A000CF911F910F91FF90EF90DF9085CFDF914F
:1010B000CF911F910F91FF90EF90DF900895CF9304
:1010C000DF93EC018FEF78DF88838AE090E0000007
:1010D0000197E9F7DF91CF9108950F931F93CF9375
:1010E000DF931F92CDB7DEB709EE13E01982CE0170
:1010F0000196E5DF29812F3E81F00150110911F0A1
:10110000203EA1F781E090E0203E09F080E00F90C2
:10111000DF91CF911F910F9108958FEF9FEFF7CF40
:10112000CF92DF92EF92FF920F931F93CF93DF93B3
:101130001F92CDB7DEB7182F6B017A011982CDDF70
:10114000892B61F490E080E00F90DF91CF911F91A7
:101150000F91FF90EF90DF90CF900895CE01019610
:10116000AEDF106889811813EDCFCE010196A7DF9D
:101170008981813039F78FEF1FDFF701808310E01D
:1011800000E0F70180818017110641F03CF0C601B4
:10119000800F911F94DF0F5F1F4FF3CFCE01019699
:1011A0008EDF81E090E0D0CFCF93DF9300D0CDB73A
:1011B000DEB78B8380911E06811104C090DC81E034
:1011C00080931E0681DC88DC61E08FE207DF41E06E
:1011D00061E0CE01039646DF77DC19821A82AE0108
:1011E0004E5F5F4FBE016F5F7F4F8FE299DF71DC13
:1011F00089810F900F900F90DF91CF910895FC019E
:1012000084858F3F69F0D0DF843038F09BEF980FF2
:10121000933018F091E08A3009F490E0892F089516
:1012200080E00895EF92FF920F931F93CF93DF9387
:1012300000D0CDB7DEB7FC0194859F3F09F444C0D0
:101240008F019B8380911E06811104C048DC81E0E0
:1012500080931E0639DC40DC61E08EE2BFDE41E0B7
:1012600061E0CE010396FEDE2FDC1A821982AE0108
:101270004F5F5F4FBE016E5F7F4F8EE251DF29DC13
:10128000D8011C96EC91F0E0EE0FFF1FEB5FFD4FD5
:101290008FEF9FEF9183808392E3E92EF12CF80189
:1012A00084858F3F69F080DF882351F0F1E0EF1AE9
:1012B000F10831F064E670E080E090E095DBEFCF7C
:1012C0008FEFD8011C968C930F900F900F90DF91A9
:1012D000CF911F910F91FF90EF900895CF93DF93DF
:1012E00000D01F92CDB7DEB7FC0184858F3F49F156
:1012F0008C8380911E06811104C0F1DB81E0809314
:101300001E06E2DBE9DB61E08BE268DE41E061E0E2
:10131000CE010496A7DED8DB1B821A821982AE01A9
:101320004D5F5F4FBE016F5F7F4F8BE2F9DED1DB18
:1013300089819A810F900F900F900F90DF91CF913C
:10134000089590E080E0F6CFCF92DF92EF92FF9287
:101350000F931F93CF93DF931F921F92CDB7DEB7EA
:10136000182F7B016A011A82B8DE892B69F490E09C
:1013700080E00F900F90DF91CF911F910F91FF9020
:10138000EF90DF90CF900895CE01029698DE10681E
:101390008A811813ECCF1982CE01019690DE8981E3
:1013A0008823A1F08FEF08DEF60180838701F60124
:1013B0002081C8018E199F092817190639F034F0C9
:1013C0008FEFFADDF80181938F01F1CFCE01029604
:1013D00076DE81E090E0CDCFBF92CF92DF92EF92A8
:1013E000FF920F931F93CF93DF9300D01F92CDB73F
:1013F000DEB76C018B017A01FC0184858430B0F08A
:1014000081E090E0F60193838283F12CE12CC70107
:101410000F900F900F900F90DF91CF911F910F9130
:10142000FF90EF90DF90CF90BF900895452B41F350
:101430008C8380911E06811104C051DB81E0809372
:101440001E0642DB49DB62E084E4C8DD40E061E087
:1014500070E0CE010496D9DD41E0B701C801D5DDC9
:1014600033DB1A821982AE014F5F5F4FBE016E5FA0
:101470007F4F84E469DF2DDB8981882309F4C0CFA5
:101480008A81813009F0BCCFF60184858B831A8272
:10149000198210E000E0BB24B39480911E068111F4
:1014A00003C01DDBB0921E060FDB16DB61E08AE293
:1014B00095DD41E061E0CE010396D4DD05DBAE01B0
:1014C0004F5F5F4FBE016E5F7F4F8AE229DE01DB17
:1014D0008A81811112C00F5F1F4F64E670E080E0C7
:1014E00090E082DA8A81811103C009311105A8F2E6
:1014F0000931110509F484CF8ACF10E000E0F2CF62
:101500003F924F925F926F927F928F929F92AF9293
:10151000BF92CF92DF92EF92FF920F931F93CF93E0
:10152000DF93CDB7DEB72F970FB6F894DEBF0FBEAF
:10153000CDBF6C015B014A0186E1E82E86E0F82E02
:10154000312C10E000E098EE492E93E0592E612CEA
:10155000712CF701819191917F010097E1F01C823C
:101560001B824D825E826F82788625EF32E03A835D
:1015700029833D86F601248135818217930759F42A
:10158000832D12DE843039F4A401B501CE01019619
:1015900023DF080F191F3394F4E03F12DACFC8019C
:1015A0002F960FB6F894DEBF0FBECDBFDF91CF915F
:1015B0001F910F91FF90EF90DF90CF90BF90AF9071
:1015C0009F908F907F906F905F904F903F90089585
:1015D000FF920F931F93CF93DF9300D0CDB7DEB769
:1015E0008B838B01F42E80911E06811104C077DA63
:1015F00081E080931E0668DA6FDA62E08CE2EEDC4E
:1016000040E061E0CE0103962DDD82E0D5DC80E094
:10161000D3DC8F2DD1DC8EEECFDC56DA19821A8224
:10162000AE014E5F5F4FBE016F5F7F4F8CE28CDE7D
:1016300050DA8A81882369F08981F801808381E00A
:101640000F900F900F90DF91CF911F910F91FF900E
:10165000089580E0F5CF0F931F93CF93DF931F92F0
:10166000CDB7DEB78C01DC01ED91FC910084F185F2
:10167000E02D1995892B79F041E0BE016F5F7F4F16
:10168000F8018485A5DF898190E00F90DF91CF91EB
:101690001F910F9108958FEF9FEFF7CF0F931F9337
:1016A000CF93DF931F92CDB7DEB78C01DC01ED91B4
:1016B000FC910084F185E02D1995892B79F040E0AB
:1016C000BE016F5F7F4FF801848582DF898190E0E2
:1016D0000F90DF91CF911F910F9108958FEF9FEFA2
:1016E000F7CFCF92DF92EF92FF920F931F93CF939A
:1016F000DF9300D0CDB7DEB76B017A01FC018485A2
:101700008B8380911E06811104C0E9D981E080930A
:101710001E06DAD9E1D961E085E460DC41E061E0F0
:1017200070E0CE01039671DCCFD91A82D6DC892B0A
:1017300019F1CE010296C3DC8A81853CE9F4198255
:10174000CE010196BCDC8981882399F08FEF34DCCF
:10175000E82E8FEF31DCFE2CE82E8601CE0CDF1C4C
:10176000C016D10631F08FEF27DCF80181938F018D
:10177000F7CFCE010296A3DCACD981E090E0EF2850
:1017800011F090E080E09195819591090F900F9074
:101790000F90DF91CF911F910F91FF90EF90DF900D
:1017A000CF900895CF92DF92EF92FF920F931F9305
:1017B000CF93DF9300D000D01F921F92CDB7DEB73A
:1017C0008C017B016A01F1D90F3F110509F028F462
:1017D00019820A8384E08B830CC017FD1AC019821A
:1017E0000A8333E0169507953A95E1F7007E0C6081
:1017F0000B8387010C0D1D1DE6E0CE16D10480F58C
:10180000F701DE0114960E171F0799F081918D9351
:10181000FACFC80126E0969587952A95E1F7807E54
:1018200019830A830115104C10F48461D4CF8C61A4
:10183000D2CFB6016D5F7F4FCE01019697D9B0D957
:10184000C60128960FB6F894DEBF0FBECDBFDF915C
:10185000CF911F910F91FF90EF90DF90CF9008955F
:1018600063E070E0CE01019681D9F70181917F019B
:101870009CDBE016F106C9F7E2CFFB01BA0190E06C
:10188000982F8827A9018E0F9F1F8CCFCF93DF93AE
:101890001F921F92CDB7DEB779836A8322E030E0D2
:1018A000AE014F5F5F4F60E170E0E7DF0F900F9098
:1018B000DF91CF910895CF93DF931F921F92CDB701
:1018C000DEB779836A8322E030E0AE014F5F5F4F7D
:1018D00064E070E0D2DF0F900F90DF91CF91089518
:1018E000CF93DF931F92CDB7DEB79B01498390E082
:1018F000982F882741E050E0BE016F5F7F4F820F35
:10190000931F50DF0F90DF91CF9108958FEF4DCB54
:101910000F931F93CF93DF93EC0197D88B01F6DFE2
:101920008F3F61F092D8601B710B6C177D07B8F385
:1019300080E0DF91CF911F910F91089581E0F9CF61
:101940008CBD9DBD0895FF920F931F93CF93DF939E
:10195000EB01FC01178A168A2A81211109C02B810B
:10196000211106C02C81211103C02D812223E9F011
:1019700041155105D1F08A01FC01F08C80E591E020
:10198000DFDFAE014E5F5F4F24E030E06CE070E0DF
:101990008F2D73DFB8018F2D79DF81E090E0DF912B
:1019A000CF911F910F91FF90089580E0F7CFCF93D3
:1019B000DF93EC0180910F06811108C081E08093D4
:1019C0000F068091030A9091040ABADF60E08C81CF
:1019D000DF91CF910C9466048F929F92AF92BF9249
:1019E000FF920F931F93CF93DF93EC01F62E4901E3
:1019F0005A018E81882379F08F8198859C012F5F11
:101A00003F4F38872F838230924010F47FDFF4CF2E
:101A1000CE01C1DA1E82CE01CADF8CE291E078DF0E
:101A20008F2D8064C2DA08E110E0D501C401002ED8
:101A300004C0B695A795979587950A94D2F7B5DA1D
:101A400008501109083F8FEF180779F785E9FF2043
:101A500021F028E087E8F2128FEFA7DA10E056DFD6
:101A60008A8787FF04C01F3F11F01F5FF8CFDF9107
:101A7000CF911F910F91FF90BF90AF909F908F904B
:101A80000895AF92BF92CF92DF92EF92FF920F93A1
:101A90001F93CF93DF93EC016901C801820F931F5D
:101AA0008130924048F58E81882379F08881998130
:101AB000AA81BB8184179507A607B70731F48F81E8
:101AC0009885C816D90608F03EC0488359836A83B2
:101AD0007B838B85833039F089E0440F551F661F67
:101AE000771F8A95D1F79A01AB0161E1CE0174DFCE
:101AF000882381F083E08D83CE014DDA80E0DF9191
:101B0000CF911F910F91FF90EF90DF90CF90BF90FA
:101B1000AF9008950E9425055B01F8DE8A878F3F0C
:101B200061F40E9425056A197B096D327140A8F3A2
:101B30008FE08D83CE012FDADFCF8E3F81F41886C0
:101B40001F8281E08E838F8198858C159D0548F4D6
:101B5000DDDE8F819885019698878F83F4CF8DE0A5
:101B6000E8CF6701E00EF11ED1DEF60181936F012F
:101B7000EE15FF05C9F78F819885080F191F188783
:101B80000F838985882319F00115124090F08E810A
:101B9000882379F08F8198859C012F5F3F4F38878C
:101BA0002F838230924010F4B1DEF4CFCE01F3D90E
:101BB0001E8281E0A4CFCF92DF92EF92FF920F932B
:101BC000CF93DF93EC01690182E141155105610575
:101BD000710591F08B85833039F089E0440F551FF2
:101BE000661F771F8A95D1F79A01AB0168E1CE0194
:101BF000F3DE882319F084E08D8326C08EEFD5D9DB
:101C000076018EEFD81AF70181917F01CED9EC14BD
:101C1000FD04C9F78FEFC9D98FEFC7D977DE8A875F
:101C20008F71853069F4011113C0CE01B4D981E000
:101C3000DF91CF910F91FF90EF90DF90CF900895BB
:101C400081E18D83CE01A7D9CE01A5D980E0F0CF67
:101C500088E592E05DDE811102C085E1CDCF20E014
:101C600030E0A9016DE0CE01B7DE882311F084E1F8
:101C7000C3CF4CDE8111FBCFD8CF0F93409111061B
:101C8000509112066091130670911406411551058A
:101C90006105710591F0082F23EA36E08091A308D1
:101CA0009091A40888DF882349F0109211061092C1
:101CB0001206109213061092140681E00F910895F7
:101CC0000F93CF93C82F80911006811105C0C1E0FA
:101CD0008C2FCF910F9108954091010250910202F3
:101CE00060910302709104020C2F23EA36E0809188
:101CF000A3089091A4085FDF811102C0C0E0E8CF83
:101D0000CC2329F381E0B9DF8823C1F310921006B8
:101D1000DFCF8F929F92AF92BF92EF92FF920F937D
:101D20001F93CF934B015C01C42F809101029091CE
:101D30000202A0910302B091040288159905AA0538
:101D4000BB0541F181E0BCDF81110BC080E0CF9188
:101D50001F910F91FF90EF90BF90AF909F908F9049
:101D6000089583EAE82E86E0F82E00E012E030E0E5
:101D700020E0B501A4018091A3089091A40881DE20
:101D8000882321F38092010290920202A092030222
:101D9000B0920402409110064C2B4093100681E053
:101DA000D6CF8F929F92AF92BF92CF92DF92EF9257
:101DB000FF92CF9325E03AE03093A4082093A30844
:101DC000882309F46BC040E060E070E0CB01A1DF44
:101DD00081110BC080E0CF91FF90EF90DF90CF900A
:101DE000BF90AF909F908F900895809161088F77FA
:101DF00089F780916D0890916E08A0916F08B0915D
:101E0000700884369105A105B10520F3C0906908DA
:101E1000D0906A08E0906B08F0906C08C114D1046F
:101E2000E104F104B9F240E0C701B60172DF882392
:101E300089F28091AE069091AF068115924051F6DD
:101E4000A091B306AA2331F26091B1067091B20657
:101E50006115710509F4BECF2091B006222309F463
:101E6000B9CFA093230A2093150A90E080E030E0D8
:101E7000E1E0F0E0C82FAF01082E02C0440F551F6B
:101E80000A94E2F72417350769F041E0480F0196FC
:101E90008930910579F740931E0A9CCFC12CD12C33
:101EA0007601C1CF80931E0A2091B9063091BA06FF
:101EB00050E040E02115310541F42091C7063091F2
:101EC000C8064091C9065091CA062093160A30935D
:101ED000170A4093180A5093190A46015701860EB3
:101EE000971EA11CB11C8092240A9092250AA092F0
:101EF000260AB092270AE091B406F091B506F09355
:101F00002A0AE093290AB0E00E940C50DC01CB01C0
:101F1000880D991DAA1DBB1D80932B0A90932C0A36
:101F2000A0932D0AB0932E0A25E0EE0FFF1F2A95ED
:101F3000E1F7E150FE4FEF2FFF27E6958E0F9F1F31
:101F4000A11DB11D80931F0A9093200AA093210A1E
:101F5000B093220A8090B6069090B706B12CA12CBF
:101F60008114910441F48090C3069090C406A0901F
:101F7000C506B090C606C81AD90AEA0AFB0AC80CF8
:101F8000D91CEA1CFB1C04C0F694E794D794C794B0
:101F9000CA95D2F7C0921A0AD0921B0AE0921C0A84
:101FA000F0921D0A85EFC8168FE0D806E104F1040F
:101FB00028F48CE08093280A81E00DCF80E125EFA2
:101FC000C2162FEFD206E104F104A0F38091CF06F0
:101FD0009091D006A091D106B091D20680932B0AA1
:101FE00090932C0AA0932D0AB0932E0A80E2E2CFA0
:101FF000CF93DF93EC016E857F858889998941E0D5
:1020000088DE882351F08A8920E2829FC001112452
:102010008D55994FDF91CF91089590E080E0FACFF0
:102020004F925F926F927F928F929F92AF92BF92E8
:10203000CF92DF92EF92FF920F931F93CF93DF9394
:10204000EC01423051056105710590F480E0DF91AB
:10205000CF911F910F91FF90EF90DF90CF90BF90A5
:10206000AF909F908F907F906F905F904F9008956A
:1020700089859A85AB85BC850196A11DB11D841704
:102080009507A607B70710F3CB88DC88ED88FE8894
:102090008F89803109F042C0BB27A72F962F852F4B
:1020A000480159012A013B01C80ED91EEA1EFB1E38
:1020B0008091010290910202A0910302B09104026A
:1020C000C816D906EA06FB0699F58F898031B9F55D
:1020D000B301A201552766277727440F551F4D5599
:1020E000594FFA019182808280911006816080931D
:1020F00010068A89823080F08D819E81AF81B885FB
:102100008C0D9D1DAE1DBF1D809311069093120670
:10211000A0931306B093140681E099CFDB01CA01A6
:10212000E7E0B695A79597958795EA95D1F7B8CF4B
:1021300040E0C701B601EDDD8111C7CF87CFB30104
:10214000A2014F77552766277727440F551F440F65
:10215000551F4D55594FFA0180829182A282B38258
:10216000C3CF8F929F92AF92BF92CF92DF92EF92A6
:10217000FF920F931F93CF93DF93FC01818592858C
:10218000A385B4850196A11DB11D84179507A607E7
:10219000B70770F480E0DF91CF911F910F91FF900E
:1021A000EF90DF90CF90BF90AF909F908F90089569
:1021B00083889488A588B6888789803189F5BB276C
:1021C000A72F962F852FE9016A017B018F01BC01A2
:1021D000CD01680D791D8A1D9B1D80900102909094
:1021E0000202A0900302B090040286169706A80689
:1021F000B90601F5F8018789803109F5DD24EE245F
:10220000FF24F601EE0FFF1FED55F94F80819181FC
:10221000B0E0A0E088839983AA83BB8381E0BBCF31
:10222000DB01CA01C7E0B695A79597958795CA9532
:10223000D1F7C9CF40E06DDD8111DCCFABCFE894A1
:10224000C7F8DD24EE24FF24F601EE0FFF1FEE0F8A
:10225000FF1FED55F94F80819181A281B381BF703D
:10226000D9CF4F925F926F927F92AF92BF92CF92EF
:10227000DF92EF92FF920F931F93CF93DF9300D0E3
:102280001F92CDB7DEB78C0149835A836B837C8361
:102290005901C12CD12C7601412C82E0582E612CA1
:1022A000712C49815A816B817C819E012F5F3F4F48
:1022B000C80157DF882339F1F8018585A301920110
:1022C00004C0220F331F441F551F8A95D2F7DA012D
:1022D000C901C80ED91EEA1EFB1E49815A816B81B5
:1022E0007C818789803111F188EF9FEFAFEFBFE0EC
:1022F000481759076A077B07A0F2F501C082D1820F
:10230000E282F38281E00F900F900F900F90DF91A7
:10231000CF911F910F91FF90EF90DF90CF90BF90E2
:10232000AF907F906F905F904F90089588EF9FEFF0
:10233000A0E0B0E0DDCFCF93DF93FC012581222325
:1023400021F080E0DF91CF910895EC018091280A7F
:10235000803159F582E08583178A108E118E128E96
:102360008091290A90912A0AB0E0A0E025E0880F28
:10237000991FAA1FBB1F2A95D1F7838B948BA58B1E
:10238000B68B81E19AE09C8F8B8F81E08C831E82DB
:102390001F82188619861A861B861C861D861E8635
:1023A0001F86188A198A1A8ACDCF803251F683E0A7
:1023B000858340912B0A50912C0A60912D0A7091CF
:1023C0002E0A478B508F618F728F9F012D5E3F4F7A
:1023D00081E19AE046DF8111D4CFB3CF8F929F92F3
:1023E000AF92BF92CF92DF92EF92FF920F931F9323
:1023F000CF93DF93EC018D8181110EC080E0DF91DE
:10240000CF911F910F91FF90EF90DF90CF90BF90F1
:10241000AF909F908F9008950B891C892D893E89DC
:10242000041715072607370748F34A015B01823076
:1024300031F48A869B86AC86BD8681E0E0CF81142C
:102440009104A104B10449F41E821F8218861986E2
:102450001A861B861C861D86F0CF0A851B852C8557
:102460003D85EB8DFC8D858590E00996B901A8012D
:102470004150510961097109082E04C0769567958C
:10248000579547950A94D2F775016401E1E0CE1A99
:10249000D108E108F10804C0F694E794D794C794F2
:1024A0008A95D2F7C416D506E606F70620F0012B6A
:1024B000022B032B09F58F89988DA98DBA8D8E83F8
:1024C0009F83A887B9878E010A5F1F4FC114D1046B
:1024D000E104F10409F4ADCF4E815F81688579850F
:1024E00098018B8D9C8D3DDE91E0C91AD108E108E1
:1024F000F1088111EBCF82CFC41AD50AE60AF70A98
:10250000E2CF3F924F925F926F927F928F929F9213
:10251000AF92BF92CF92DF92EF92FF920F931F93F1
:10252000CF93DF93CDB7DEB72C970FB6F894DEBF0D
:102530000FBECDBF5C01DC015B968D909C905C97DB
:1025400016964D905D906D907C90199741145104B2
:102550006104710409F467C0BFEF4B1A5B0A6B0A90
:102560007B0A312CF40181859285A385B4859C0179
:10257000AD012F5F3F4F4F4F5F4F29873A874B8702
:102580005C87730162011D821E821F821886F4011E
:1025900081859285A385B4852D813E814F815885A3
:1025A000281739074A075B0708F054C089859A85C0
:1025B000AB85BC858C159D05AE05BF0550F482E04A
:1025C000C82ED12CE12CF12C92E0492E512C612CFB
:1025D000712C9E012F5F3F4FB701A601C401C1DDE1
:1025E0008823C1F189819A81AB81BC81892B8A2B97
:1025F0008B2B09F1260137019FEF491A590A690A05
:10260000790A2D813E814F8158852F5F3F4F4F4F73
:102610005F4F2D833E834F8358873FEFC31AD30A02
:10262000E30AF30AB4CFF4014080518062807380E2
:102630003324339497CFC414D504E604F70409F780
:102640000FEF1FEF2FEF3FE0B701A601C401E8DC59
:10265000811119C080E02C960FB6F894DEBF0FBE32
:10266000CDBFDF91CF911F910F91FF90EF90DF9041
:10267000CF90BF90AF909F908F907F906F905F9022
:102680004F903F900895D50116964D915D916D91B3
:102690007C911997411551056105710531F097013C
:1026A0008601C401BDDC8823A9F2D5011696CD921E
:1026B000DD92ED92FC921997332051F0D701C601BB
:1026C0000196A11DB11DF40180839183A283B38380
:1026D000F5018789908DA18DB28D892B8A2B8B2B4B
:1026E00039F48481C78AD08EE18EF28E806884832B
:1026F000F50184818062848381E0ADCF1F93CF9305
:10270000DF93FC012581222361F1162FEC018481E6
:1027100087FF1DC0CF016CDCFC01892B11F18D817D
:10272000823040F48B899C89AD89BE89848F958FD6
:10273000A68FB78F8F89988D938F828F8F89988D71
:10274000A98DBA8DB58BA48B8C818F778C83111159
:1027500003C08C818F7E8C83812FDF91CF911F915D
:10276000AFCA80E0DF91CF911F910895FF920F9340
:102770001F93CF93DF93EC018D81813041F090E086
:1027800080E0DF91CF911F910F91FF9008958C8190
:1027900081FFF5CF82FD18C00091A3081091A40815
:1027A000C80105D9B3D8F82EC8010E94CB078FEF16
:1027B000F812E5CF8C8185FF19C060E0CE019EDF65
:1027C0008C818F7D8C83DBCF4B895C896D897E8981
:1027D0008A859B85AC85BD8584179507A607B707B5
:1027E000D9F2CE01FBDD8111D7CFC9CF40911106BF
:1027F000509112066091130670911406452B462BDA
:10280000472B19F080E039DABACF80618C832A85B2
:102810003B85317080E092E0821B930BB2CFCF9367
:10282000DF93EC0161E06ADF882311F01D8281E013
:10283000DF91CF9108958F929F92AF92BF92CF92E6
:10284000DF92EF92FF92CF93DF93EC015ADE81117A
:102850000CC080E0DF91CF91FF90EF90DF90CF90A0
:10286000BF90AF909F908F900895EB8DFC8DCE80A0
:10287000DF80E884F98482E0C81AD108E108F10811
:10288000858504C0CC0CDD1CEE1CFF1C8A95D2F79C
:1028900086859785A089B189C80ED91EEA1EFB1EC0
:1028A000848146015701880E911CA11CB11CC814DB
:1028B000D904EA04FB04F1F081E0881A9108A10828
:1028C000B10881E0FDD9882321F2E3EAF6E0119214
:1028D00088E0E33AF807D9F7809201029092020269
:1028E000A0920302B092040280911006816080934E
:1028F0001006DDCFEB8DFC8D258580E092E0A0E019
:10290000B0E004C0880F991FAA1FBB1F2A95D2F7F9
:102910004B895C896D897E89840F951FA61FB71F1F
:102920008B8B9C8BAD8BBE8B81E094CF2F923F9293
:102930004F925F926F927F928F929F92AF92BF92CF
:10294000CF92DF92EF92FF920F931F93CF93DF937B
:1029500000D01F921F92CDB7DEB77C015B01342EF1
:102960005D83DC0115968C911597813009F0CBC001
:1029700014962C9021FEC7C022FCB2C0C32CDD806F
:1029800022947FE027222094B22DB1702B2ED70104
:102990001A964D915D916D917C911D97C114D10452
:1029A00009F422C15B968D919C915C97FC01748027
:1029B0007A948A019B0169E03695279517950795CA
:1029C0006A95D1F770228A01117071101FC001152C
:1029D0001105E1F416964D915D916D917C911997D9
:1029E000411551056105710509F096C057968D9105
:1029F0009D910D90BC91A02D0097A105B10509F006
:102A0000ACC0C7017EDD882309F47DC080E092E080
:102A1000801B910B46018C159D0508F44C01D701D4
:102A20005B964D915C915C9716968D919D910D9062
:102A3000BC91A02D0297A109B109FA01258504C016
:102A4000880F991FAA1FBB1F2A95D2F74685578565
:102A500060897189840F951FA61FB71F9C01AD0166
:102A6000270D311D411D511D29013A01811432E00C
:102A7000930609F078C08091010290910202A09122
:102A80000302B091040284159505A605B70559F413
:102A90008FEF9FEFDC018093010290930202A093DD
:102AA0000302B0930402022D9501B301A2018091AB
:102AB000A3089091A4087FD8882329F19EEFB91A22
:102AC000C818D908F70182859385A485B585880D36
:102AD000991DA11DB11D82879387A487B58757CF04
:102AE000F701438954896589768982859385A48510
:102AF000B585481759076A077B0709F43FCFC70117
:102B00006DDC81113BCF81E090E0D70113969C935F
:102B10008E93129780E006C09E012F5F3F4F21DB0E
:102B2000811102C090E077C089819A81AB81BC811C
:102B3000F701238D348DF901278948EF5FEF60E0BD
:102B400070E0203121F048EF5FEF6FEF7FE08417F6
:102B50009507A607B70708F054CFF7018683978338
:102B6000A087B18753CF0115110591F5D7011A96AA
:102B70004D915D916D917C911D9753968D919D9195
:102B80000D90BC91A02D481759076A077B0700F1EB
:102B900081E096D8882309F4B6CF40920102509282
:102BA000020260920302709204028091100681601A
:102BB00080931006C8018D55994FD5019C01280DB1
:102BC000391DFC012E173F0751F04D914193FACF6B
:102BD00041E0C301B2019DD88111ECCF94CF281BF5
:102BE000390BA20EB31E6CCFF70183899489A58996
:102BF000B68984179507A607B70738F48481438BF5
:102C0000548B658B768B80688483F701848183FD88
:102C10001AC0832D9D810F900F900F900F900F90F1
:102C2000DF91CF911F910F91FF90EF90DF90CF90A8
:102C3000BF90AF909F908F907F906F905F904F90DC
:102C40003F902F90089561E0C70158DD882309F473
:102C50005ACFDFCFCF93DF931F92CDB7DEB7698313
:102C600041E050E0BE016F5F7F4F60DE0F90DF916B
:102C7000CF910895FC01DB0112968D919C911397E1
:102C80009383828387ED92E09183808314968C9165
:102C90001497848315968C911597858316964D917C
:102CA0005D916D917C9119974683578360877187F9
:102CB0001A964D915D916D917C911D974287538736
:102CC000648775871E964D915D916D917C915197AA
:102CD00046875787608B718B52968C915297828B67
:102CE00053964D915D916D917C915697438B548B8A
:102CF000658B768B57964D915D916D917C915A972E
:102D0000478B508F618F728F5B968D919C91948FC2
:102D1000838F0895FC01818D928D009711F061E001
:102D2000EDCC0895DC015996ED91FC913097B9F006
:102D300083899489A589B68942855385648575857B
:102D4000841B950BA60BB70B811520E89207A105F4
:102D5000B10538F08FEF9FE7A0E0B0E0089590E074
:102D600080E00895DC0159968D919C91009739F08F
:102D7000DC01ED91FC910480F581E02D199490E047
:102D800080E00895CF93DF93EC01E98DFA8D3097C1
:102D900049F481E090E09B838A8390E080E0DF91BA
:102DA000CF91089513821282898D9A8DBFDDE98DAE
:102DB000FA8D22813381232B61F7F1CFCF93DF93FB
:102DC0001F92CDB7DEB76983DC01ED91FC910280E3
:102DD000F381E02D41E050E0BE016F5F7F4F199518
:102DE0000F90DF91CF9108952F923F924F925F9273
:102DF0006F927F928F929F92AF92BF92CF92DF920B
:102E0000EF92FF920F931F93CF93DF9300D0CDB734
:102E1000DEB7FC018581811118C08FEF9FEF0F9005
:102E20000F900F90DF91CF911F910F91FF90EF9036
:102E3000DF90CF90BF90AF909F908F907F906F90DA
:102E40005F904F903F902F900895848180FFE5CF51
:102E5000438954896589768982859385A485B5855A
:102E6000312C212C481759076A077B0719F02224B7
:102E70002394312C6F012101CE0101963C01DF0129
:102E80001696BB83AA834114510409F4C4C0F60109
:102E900042855385648575854A01F1E09F22D601FC
:102EA0005B968D919C915C978A019B01E9E0369538
:102EB000279517950795EA95D1F71596EC91E2308D
:102EC000E9F5FC01628D738D848D958D600F711F06
:102ED000821F931FA12C22E0B22EA818B9084A1411
:102EE0005B0408F45201F601248126FD04C0A114FC
:102EF000F2E0BF0671F400910102109102022091EC
:102F0000030230910402061717072807390709F052
:102F10005DC040E00E94890E882309F47ECFC40181
:102F20008D55994FD3019C012A0D3B1DFC012E1795
:102F30003F0709F46BC041914D93F9CFDC01149622
:102F4000BC90BA94B0228114910479F4B1100DC0F0
:102F5000452B462B472B69F5F6018789908DA18D6E
:102F6000B28D86839783A087B187D6015B96ED915A
:102F7000FC915C9716966D917D918D919C9119971E
:102F80006250710981099109258504C0660F771F78
:102F9000881F991F2A95D2F70685178520893189C0
:102FA000600F711F821F931F6B0D711D811D911D7D
:102FB00091CFD60116964D915D916D917C911997A7
:102FC0002A813B81CED88111D0CF27CF73018501D3
:102FD0009401AB01BC018091A3089091A4080E94C8
:102FE000410D882309F419CF6A0C7B1CF6018285F8
:102FF0009385A485B5858A0D9B1DA11DB11D828772
:103000009387A487B5874A185B083DCF281B390BE7
:10301000620E731EEBCF2A94232809F0FECE89811D
:1030200090E0FDCEFC01818D928D009709F0DCCE01
:103030008FEF9FEF08950F931F93CF93DF93EC01D2
:10304000898D9A8D10E000E0009789F0CDDE8C012B
:103050000F3F100761F0898D9A8DFC0142855385E1
:10306000648575854150510961097109B7D9C80155
:10307000DF91CF911F910F91089585ED8093BC0052
:103080008091BC0084FDFCCF1092ED080895209142
:10309000EA05260F3327331F21323105ECF4209146
:1030A000ED08FC0190E080E0243069F082E00895B2
:1030B000A091EA052191AC0148535A4FA40FB52FB6
:1030C000B11D2C930196861798F38091EA05680F3D
:1030D0006093EA0580E0089581E0089508950895D9
:1030E000E091A6088091A508E81730F4F0E0E955D2
:1030F000F74F808190E008958FEF9FEF08959091B2
:10310000A6088091A5082FEF3FEF981748F4E92F04
:10311000F0E0E955F74F208130E09F5F9093A608DB
:10312000C90108958091A5089091A608891B990B63
:103130000895CF92DF92EF92FF920F931F93CF9358
:10314000DF937C01CB018A012091EE08222389F0D4
:10315000EB016B01C40ED51ECC15DD0561F0699144
:10316000D701ED91FC910190F081E02DC7011995F7
:10317000F3CF642F8CDFC801DF91CF911F910F91A6
:10318000FF90EF90DF90CF900895CF93DF931F9241
:10319000CDB7DEB769832091EE082223F9F02091A4
:1031A0001109203258F021E030E0FC013383228302
:1031B00090E080E00F90DF91CF9108958091EF082B
:1031C000E82FF0E0E051F74F998190838F5F809373
:1031D000EF088093110981E090E0ECCF61E0CE012F
:1031E000019655DFF8CFFC01248131E03093EE08E1
:1031F000209310091092EF08109211098385682B13
:103200008EE49AE0C2DF0C94DF01FC0190819053C0
:103210009A3008F090E0818180532AE0929F800DDF
:1032200011240895FC01768765870895DC01ED91EE
:10323000FC91068CF78DE02D199591E08927089572
:10324000862F089581E08627089521E0FC0184857A
:10325000883008F020E0822F089590E080E0089503
:103260000E948B02BC01990F880B990B0E94D74ECC
:1032700020E030E040E85AE30E94364F2AE037ED84
:1032800043E25DE30E9425502DEE33ED41E75BE321
:103290000E948A502AED31EA4CED50E40E948A5097
:1032A00020E030E040EA50E40E94D14E881F882799
:1032B000881F0895F89481E08093BF051092BF05A0
:1032C0008BE00E943E0421E0892B09F020E020934E
:1032D000BE0578940895CF92DF92EF92FF926B0132
:1032E0007C010E942505C60ED71EE81EF91E0E940D
:1032F0002505C616D706E806F906C8F3FF90EF9035
:10330000DF90CF900895E091A106F091A206EE0F14
:10331000FF1FE458F94F60E080810E94660464EF6B
:1033200071E080E090E0D7DF1092A006089529E0D8
:10333000289FF001299FF00D1124E60FF71FEE0FD3
:10334000FF1FE458F94F61E080810E94660464EF3A
:1033500071E080E090E0BFCFCF93DF931F921F9288
:10336000CDB7DEB72091971330919813CE01019617
:103370002115310559F48B5993419A8389838981A9
:103380009A810F900F90DF91CF910895821B930B3C
:10339000F4CF08959091ED089111FCCF282F91E082
:1033A0009093ED089093EC083FEF3093EB08109268
:1033B000EA08380F3093E9089093C8089091C8083C
:1033C000906D9093C8089091C708913019F51092AC
:1033D000C7089091C8089093BB009091BC0093FDE2
:1033E000F8CF95EC9093BC009091ED089130E1F30B
:1033F0009091EA08981710F42091EA08A9ECB8E037
:10340000E7EAF8E080E0821307C01092A6088093F4
:10341000A508089595EEE6CF9D9191938F5FF3CF28
:10342000BF92CF92DF92EF92FF920F931F93CF93B1
:10343000DF93EC01B62EC72E8D85811105C0CE011C
:103440000E94070781110EC01B861D861C8680E026
:10345000DF91CF911F910F91FF90EF90DF90CF9070
:10346000BF90089540E060EFCE010E94B70601E0F2
:10347000E12CD12C11E0CE010E946406F82ECE0181
:103480000E94640691E0F91218C0813099F5113458
:10349000D8F2DB86D11002C081E08D878B81882332
:1034A00099F22396EB2DFC2DCF01089629912193BB
:1034B000E817F907D9F781E0CBCFEE2DF0E0F8124D
:1034C0000FC08B851817A0F4DE01AE0FBF1F139637
:1034D0008C91802379F4F12C193008F41C87D12EBB
:1034E000EC0FFD1F8381902F9095892383830AC061
:1034F0008113F1CFFE01EE0DF11D8381802B8383BB
:10350000FF24F3946F2DCE010E9488061F5F000FE9
:1035100011F4E39401E087E08E1508F0ACCFB7CF4B
:103520008F929F92AF92BF92CF92DF92EF92FF92D3
:103530000F931F93CF93DF93CDB7DEB761970FB68D
:10354000F894DEBF0FBECDBF8091E40A9091E50AEA
:103550000E94070740E06CEC8091E40A9091E50A34
:103560000E94B7064091DE0A64E48091E40A9091DB
:10357000E50A0E94B7068091E00A882391F1E09164
:10358000DF0AE9500EEE12E0E33038F4F0E0EE0F1F
:10359000FF1FE554FD4F008111818091E10A8823CE
:1035A00009F44FC08091DE0A81114BC00E942505AD
:1035B0004B015C016801110FEE08FF088091E40ADD
:1035C0009091E50A0E946406813059F00E94250519
:1035D0006C197D098E099F09681579058A059B0577
:1035E00068F3E091E40AF091E50A138615861486E3
:1035F0001286118610861782168215821482138213
:10360000BE01665F7F4F8091E40A9091E50A08DF72
:1036100081111EC06AE979E984E493EC61960FB6E2
:10362000F894DEBF0FBECDBFDF91CF911F910F91F8
:10363000FF90EF90DF90CF90BF90AF909F908F90D2
:103640000895B801110F880B990B0E94F404C9CF9B
:1036500067E0CE010A960E944D0699898913DACF58
:103660008091E40A9091E50A0E940707882391F26D
:10367000AE014F5F5F4FBE01665F7F4F8EED9AE0F8
:103680000E943F07882331F268E0CE0101960E9434
:103690004D0699858913BECF6A8170E0762F662723
:1036A000770F770F770F298148E0249F900111242D
:1036B000262B372B8A858031D1F4688570E08F8185
:1036C000AB01481B5109CA019695982F88279795F9
:1036D00087950E942E51CB014097B90153E0660FA8
:1036E000771F5A95E1F760789C01260F371F213824
:1036F00054EE35070CF48ECFB901330F880B990BBC
:103700000E94D74E26E636E646E65CE30E94364F38
:1037100020E030E040E052E40E9426507FCFEF925C
:10372000FF920F931F93CF93DF9300D000D01F928F
:103730001F92CDB7DEB78C01DC011696ED91FC919E
:10374000179713861586148612861186108617829F
:10375000168215821482138214961C921497159661
:103760001C92EE24E394BE016F5F7F4FF8018681C7
:10377000978156DE882309F46FC067E0CE01019679
:103780000E944D0698858913EECFD8018C91811146
:1037900025C016968D919C910E940707BE016F5F10
:1037A0007F4FF801868197810E94EA0640E064EB32
:1037B000D80116968D919C910E94B706F8018681DA
:1037C00097810E946406F82ED80116968D919C91DF
:1037D0000E940707F11002C0F801E082D80111969B
:1037E000FC9089818031A1F1BE016F5F7F4FC801DC
:1037F0000E9488078F15D0F4F8018181D8011196B5
:103800008C93119714968C9114978F5F14968C93C8
:103810008981883231F0B0F4803119F0823209F0B8
:10382000A2CFF80185818F5F85839DCF898180310B
:1038300011F48CE0E3CFBE016F5F7F4FC8010E949F
:103840008807DCCF8B3369F3823409F08CCFE9CF62
:10385000FCE0FF1588F2EDCF28960FB6F894DEBF96
:103860000FBECDBFDF91CF911F910F91FF90EF90D1
:103870000895CF92DF92EF92FF920F931F93CF9311
:10388000DF9300D01F92CDB7DEB7E6E1F6E010E09F
:1038900000E021913191232B91F00F5F1F4F0430F5
:1038A0001105B9F70F900F900F900F90DF91CF9106
:1038B0001F910F91FF90EF90DF90CF9008957C01C2
:1038C000FC01D480C5800C83198280911E06811171
:1038D00005C00E946F0581E080931E060E9464056A
:1038E0000E946C0563E088E20E94EE0782E00E947D
:1038F000DC078C2D0E94DC078D2D0E94DC0740E048
:1039000061E0CE0104960E94320841E061E0CE0100
:1039100001960E9432080E9464051B821A82AE0141
:103920004E5F5F4FBE016D5F7F4F88E20E9490083F
:103930000E946905F70124813581C801880F991F0C
:10394000FC01EA5EF94F318320838B5F9D4FFC01C0
:1039500011830083A7CFCF92DF92EF92FF920F9354
:103960001F93CF93DF9300D000D01F921F92CDB74B
:10397000DEB7E5E0F2E030E020E0A191B1911196F0
:1039800031F02F5F3F4F24303105B9F72FEFDC01C5
:103990001C962C932F3F09F491C0E52EF42E8C0138
:1039A000FB0182819381A481B58189839A83AB8352
:1039B000BC8328871D8280911E06811105C00E944C
:1039C0006F0581E080931E060E9464050E946C05CD
:1039D00064E08DE20E94EE0740E064E0CE010196D3
:1039E0000E94320882E00E94DC078E2D0E94DC07D4
:1039F0008F2D0E94DC0740E061E0CE0108960E9416
:103A0000320841E061E0CE0105960E9432080E9432
:103A100064051F821E82AE014A5F5F4FBE01695F6F
:103A20007F4F8DE20E9490080E946905D8011C9684
:103A30008C9190E0FC01EE0FFF1FEB5FFD4F918337
:103A400080830E9425056B017C01D801ED91FC91DA
:103A50000688F789E02DC8011995811112C00E94CE
:103A600025056C197D098E099F0960317742810512
:103A7000910538F461E070E080E090E00E94F40489
:103A8000E4CFD801ED91FC910688F789E02DC801BB
:103A9000199521E090E0811101C020E0822F289645
:103AA0000FB6F894DEBF0FBECDBFDF91CF911F914F
:103AB0000F91FF90EF90DF90CF90089580E090E01D
:103AC000EECFCF92DF92EF92FF921F93CF93DF93CF
:103AD000EC0180E2689FF0011124ED55F94F9385C8
:103AE000917161F0842F827449F080E0DF91CF9171
:103AF0001F91FF90EF90DF90CF900895142F6A8B65
:103B00008091010290910202A0910302B0910402FF
:103B10008E879F87A88BB98BC488D588F12CE12C20
:103B20007601DD24CC24CF8AD88EE98EFA8E828D60
:103B3000938DB0E0A0E0AC01BD014C295D296E2958
:103B40007F294F8B588F698F7A8F83858871B1F465
:103B5000848D958DA68DB78D8B8B9C8BAD8BBE8BFD
:103B600081E08D831F701C831E821F821886198638
:103B70001A861B861C861D8681E0B8CF803109F02D
:103B8000B4CF9E012D5E3F4F8B8D9C8D0E943111D5
:103B9000882309F4AACF84E0E4CF0F931F93CF9337
:103BA0008C01C62F20DB6C2F6460C8011CDB6C2FDE
:103BB0006B7FC80118DB83EC90E00197F1F7CF91A0
:103BC0001F910F9108950F931F93CF93DF938C0153
:103BD000D62FC42F607F642BE0DF80E1D89FB00137
:103BE00011246C2BC801DF91CF911F910F91D5CF7C
:103BF000CF93DF9300D000D01F921F92CDB7DEB7D6
:103C000028E0E3E2F2E0DE01119601900D922A95A0
:103C1000E1F7FC012085261708F46FEF70E0660FCE
:103C2000771F21E030E02C0F3D1F620F731FFB0157
:103C30006081606840E028960FB6F894DEBF0FBE42
:103C4000CDBFDF91CF91BFCF41E0BDDF81E090E0FC
:103C500008950F931F93CF93DF930097A9F1FB0172
:103C600020813181232B61F1448155814F5F5F4F6A
:103C7000C091240BD091250B9E01240F351FE0919C
:103C8000260BF091270BE217F307D0F03093250BAA
:103C90002093240B2097A1F08C01FB01608171819E
:103CA000CE010E944652F8019481907895609483E9
:103CB000D183C08381E0DF91CF911F910F9108954F
:103CC000FC0124812078248380E0F5CF0F931F939B
:103CD000CF93DF938C0190912E0B892F8F7761F416
:103CE0009078906290932E0B10922B0B10922A0BCF
:103CF00010922D0B10922C0B80912E0BC0912A0B41
:103D0000D0912B0B85FD08C0F0E0E0E0CF01DF9102
:103D1000CF911F910F910895209709F16E817F81B6
:103D200060177107D1F00115110541F0611571059A
:103D300029F0C8010E947252882379F08D8188236E
:103D400071F028E08202C0011124C80FD91FE4CF0E
:103D5000F0932B0BE0932A0B25C0FE01D7CFE09107
:103D6000260BF091270B8091240B9091250B089640
:103D7000E817F90748F23897F093270BE093260BE2
:103D8000309711F2A0912C0BB0912D0B109701F3ED
:103D9000CF018A1B9B0B23E0959587952A95E1F728
:103DA00015968C93F0932D0BE0932C0B15821482B7
:103DB00017830683ABCF1F93CF93DF9300D01F925F
:103DC000CDB7DEB782E199E00E94E30282E199E09B
:103DD0000E94E30210E08A3379F0E1E0F0E0EC0FBA
:103DE000FD1FE10FF11D17FDFA9580831F5F82E132
:103DF00099E00E94E302EFCFCE0101960E94204C91
:103E0000182F82E199E00E94E3028053990B8230DF
:103E1000910520F4682F812F0E94660482E199E0C9
:103E20000E94E3028A3011F08D30C1F782E199E0FF
:103E30000E94F7028A3021F482E199E00E94E302B5
:103E40000F900F900F900F90DF91CF911F910895D9
:103E5000FB0101900020E9F73197AF01461B570B9A
:103E6000DC01ED91FC910280F381E02D19948F9299
:103E70009F92AF92BF92EF92FF920F931F93CF93B7
:103E8000DF93CDB7DEB7A1970FB6F894DEBF0FBEB4
:103E9000CDBF7C01FA01CB0119A2223008F42AE03F
:103EA0008E010F5D1F4F822E912CB12CA12CBF01D2
:103EB000A50194010E94EA4FF901CA016A3004F594
:103EC000605DD8016E938D01232B242B252B79F770
:103ED00090E080E0109719F0BD01C701B9DFA1960D
:103EE0000FB6F894DEBF0FBECDBFDF91CF911F910B
:103EF0000F91FF90EF90BF90AF909F908F9008959B
:103F0000695CDFCFCF92DF92EF92FF92CF93DF9386
:103F10006C01990FEE08FF08F7FE21C06DE282E107
:103F200099E00E943C03EC0144275527BA014C1943
:103F30005D096E097F092AE082E199E098DFC80FE8
:103F4000D91F69E673E082E199E082DF8C0F9D1F43
:103F5000DF91CF91FF90EF90DF90CF9008952AE00E
:103F6000B701A60182E199E082DFEC01EACF8F92EE
:103F70009F92AF92BF92CF92DF92EF92FF920F93F8
:103F80001F93CF93DF937C01EB016C0182E0C80E9D
:103F9000D11C4701E5E08E0E911C10E000E0F60117
:103FA00041916F0150E070E060E02AE0CE015FDFF8
:103FB0005C01E881F9810190F081E02D6EE2CE0193
:103FC00019958A0D9B1D080F191FC814D90439F7BC
:103FD000F701458150E070E060E02AE0CE0147DF64
:103FE000800F911FDF91CF911F910F91FF90EF9064
:103FF000DF90CF90BF90AF909F908F900895CF9318
:10400000DF93D0E0C0E0009729F0BC0182E199E0A5
:104010001FDFEC0169E673E082E199E019DF8C0FA4
:104020009D1FDF91CF9108950F931F93CF93DF933F
:10403000EC01FB014481558160817181E881F98146
:104040000280F381E02D19958C0169E673E0CE01C1
:10405000FFDE800F911FDF91CF911F910F91089587
:10406000BC0182E199E0E0CFF3CE3F924F925F92A4
:104070006F927F928F929F92AF92BF92CF92DF9278
:10408000EF92FF920F931F93CF93DF9300D000D056
:1040900000D01F921F92CDB7DEB77C018B016A0161
:1040A00080911506811105C00E946F0581E0809303
:1040B00015060E9464050E946C0561E084E30E947D
:1040C000EE07F80101900020E9F73197BF01601B6E
:1040D000710B41E0C8010E9432080E9464051F82F2
:1040E0001982AE014F5F5F4FBE01695F7F4F84E36E
:1040F0000E949008182F0E94690511111AC090E0C3
:1041000080E02B960FB6F894DEBF0FBECDBFDF91D7
:10411000CF911F910F91FF90EF90DF90CF90BF90C4
:10412000AF909F908F907F906F905F904F903F9057
:1041300008950AE01FEF332433941B831C831D83EF
:104140001E8380911506811104C00E946F05309274
:1041500015060E9464050E946C0560E085E30E94DC
:10416000EE070E9464051B86AE01455F5F4FBE01EE
:10417000695F7F4F85E30E949008892B61F40E945C
:104180006905015009F4BBCF68EE73E080E090E070
:104190000E94F404D2CF4F80588469847A848B8043
:1041A0009C80AD80BE800E94690584149504A6049D
:1041B000B70439F3D701ED91FC910684F785E02D22
:1041C0008FE493E09A8389834B825C826D827E8246
:1041D000A601BE016F5F7F4FC701199592CF0F9364
:1041E0001F93CF93DF938C01EB01FC0180819181C0
:1041F0000097E1F06881798161157105A9F042812C
:1042000053812C813D814217530770F00E947B52ED
:104210008C819D81F801958384831D821C82DF91AE
:10422000CF911F910F9108950E94974B888199819A
:10423000F801918380838A819B81938382838C811F
:104240009D8195838483198218821B821A82E5CF0F
:10425000CF93DF93EC0188819981009711F00E9440
:10426000974B198218821D821C821B821A82DF9151
:10427000CF910895FC0180819181009711F00C94F9
:10428000974B08950F931F93CF93DF93EC01888191
:104290009981009759F02A813B812617370730F022
:1042A00081E0DF91CF911F910F9108958B016F5F96
:1042B0007F4F0E945D51009759F0998388831B833B
:1042C0000A832C813D81232B59F7FC011082E8CF12
:1042D00080E0E7CFEF92FF920F931F93CF93DF938E
:1042E0006115710541F480E0DF91CF911F910F912D
:1042F000FF90EF90089541155105A9F07B01EC0165
:104300000C811D81040F151FB801BCDF882359F3F0
:10431000288139818C819D81B701820F931F0E9472
:104320007B521D830C8381E0DFCFFC0144815581EA
:10433000608171818BE893E1CDCFEF92FF920F9373
:104340001F93CF93DF9300D000D01F921F92CDB761
:10435000DEB77C01CB014AE08E010F5F1F4FB80131
:104360000E94464CF80101900020E9F73197AF0117
:10437000401B510BB801C701ADDF811102C0C7015D
:1043800067DFC70128960FB6F894DEBF0FBECDBF1A
:10439000DF91CF911F910F91FF90EF900895CF93F0
:1043A000DF93EC01FB0101900020E9F73197AF01A9
:1043B000461B570B8FDF811102C0CE0149DFCE01B2
:1043C000DF91CF910895CF93DF93EC01FB014481FE
:1043D0005581608171817EDF811102C0CE0138DF9D
:1043E000CE01DF91CF910895CF93DF93EC01EAA145
:1043F000FBA1E80FF91F1282BC016E5F7F4F59F0DD
:10440000FB0101900020E9F73197AF01461B570BE4
:10441000888199815FDF1BA21AA2DF91CF91089555
:10442000CF93DF93EC018AA19BA19C012F5F3F4FAB
:104430003BA32AA3FE01E80FF91F6283029680972F
:1044400010F0CE01D1DF8CA19DA101969DA38CA37C
:10445000DF91CF910895CF92DF92EF92FF920F9369
:104460001F93CF93DF938C016A01EB017B01E40E74
:10447000F51ECE15DF0591F02991F80182A193A1D7
:10448000AC014F5F5F4F53A342A3E80FF91F228394
:104490000296809770F3C801A7DFEBCFC601DF91CA
:1044A000CF911F910F91FF90EF90DF90CF900895E3
:1044B000EF92FF920F931F93CF93DF93CDB7DEB7A9
:1044C00066970FB6F894DEBF0FBECDBF8C01CB014F
:1044D000FE0177969F014AE0E42EF12CB7010E947D
:1044E0002E51805D8293CB010097C1F7A9014E1B2D
:1044F0005F0BBF01C801AFDFF80124A135A1820F16
:10450000931F95A384A366960FB6F894DEBF0FBEE3
:10451000CDBFDF91CF911F910F91FF90EF90089544
:104520008F929F92AF92BF92CF92DF92EF92FF92C3
:104530000F931F93CF93DF93CDB7DEB766970FB678
:10454000F894DEBF0FBECDBF7C018E01095E1F4F08
:1045500068018AE0882E912CA12CB12CCB01BA01E4
:10456000A50194010E94EA4F942F852F605DF80108
:1045700062938F01A901692F782F411551056105BB
:10458000710561F7A6014E1B5F0BBF01C70163DF19
:10459000F70124A135A1820F931F95A384A36696EA
:1045A0000FB6F894DEBF0FBECDBFDF91CF911F9144
:1045B0000F91FF90EF90DF90CF90BF90AF909F90C2
:1045C0008F900895CF93DF93EC01FB0101900020C1
:1045D000E9F73197AF01461B570B3DDF2CA13DA1F9
:1045E000820F931F9DA38CA3DF91CF910895FF921B
:1045F0000F931F93CF93DF936115710541F460E62C
:1046000073E0DF91CF911F910F91FF90DBCF8B0172
:10461000EC0162E2CE0104DFF80161918F016623B3
:1046200051F0E1E5F3E0F080FF20A1F3818168170C
:1046300051F03296F8CF62E2CE01DF91CF911F9117
:104640000F91FF90EDCE6CE5CE01EADE6F2DE2CF4B
:104650000F931F93CF938C01C0E0F80186A1C81778
:1046600030F465E673E0C801ADDFCF5FF6CFCF91E0
:104670001F910F9108952F923F924F925F926F92E8
:104680007F928F929F92AF92BF92CF92DF92EF92E2
:10469000FF920F931F93CF93DF93CDB7DEB76A9747
:1046A0000FB6F894DEBF0FBECDBFFC014B01948165
:1046B0009F77963009F498C2B8F49230F8F09430AD
:1046C00008F07CC24281538160817181C401C3DEE4
:1046D000D40194962D913C919597820F931F9596B6
:1046E0009C938E93949702C29C3009F446C048F480
:1046F000983009F474C29A3009F465C260E673E038
:1047000039C0903209F416C29034C1F7008111818A
:104710006FE673E00115110569F162E773E0C4010A
:1047200051DFF40186A18F5F86A3C40191DFB4013C
:10473000C801A1DFD80115968C91882309F4F7C12F
:10474000B8E08B02C0011124080F191F68E673E05E
:104750000115110511F469E673E0C40133DF011599
:10476000110519F7F40186A1815086A3C40170DFF9
:1047700060E773E0C40126DFB9C1408051806280E8
:104780007380A3019201C301B2010E94D14E811135
:10479000B5CF20E030E0A901C301B2010E94D14EA3
:1047A000882379F0A3019201C301B2010E9426502F
:1047B0009B01AC01C301B2010E94D14E882309F4D0
:1047C0009DCF20E030E0A901C301B2010E94D14E8B
:1047D00087FF07C06DE2C40123DE77FA709477F893
:1047E000709420E836E948E15BE4C301B2010E941D
:1047F0001E5187FD79C04FE7E42E42E0F42E5FE4BE
:10480000C52E52E0D52E67E6A62E62E0B62E00E257
:1048100010E0312C212CA3019201D7019E918E91A1
:104820007E916E917D010E94D14E18166CF0F601BA
:104830002489358946895789C301B2010E94364FC0
:104840002B013C01200E311E15950795F4E0CF1A7F
:10485000D108AE14BF04F9F62FEF2B8B20E030E027
:10486000A901C301B2010E941E5118160CF043C0E9
:104870002CEA35EC47E257E3C301B2010E94D14E66
:104880001816CCF19B89A4E09A0250011124D12C76
:10489000C12CBB89BF3F79F17501EC0CFD1CF70100
:1048A000E95CFD4FA3019201608171818281938156
:1048B0000E941E5118167CF4F701E959FD4F208122
:1048C000318142815381C301B2010E94364F2B01D5
:1048D0003C01201A310A15950795EB89E150EB8BC5
:1048E000F4E0CF1AD108D5CF00E210E085E08B8B41
:1048F000312C212CB3CFC301B2010E94F2506B8B3B
:104900007C8B8D8B9E8B6B017C0116E080E492E4A6
:10491000AFE0B0E08F8B988FA98FBA8F012F115025
:104920009AE0C916D104E104F104C8F06F89788DCA
:10493000898D9A8D2AE030E040E050E00E94EA4FF5
:104940002F8B388F498F5A8FC701B6012AE030E08C
:1049500040E050E00E94EA4F69017A01DFCF6B89A5
:104960007C898D899E890E94D54E9B01AC01C30133
:10497000B2010E9425506B017C016F89788D898D71
:104980009A8D0E94D54E9B01AC01C701B6010E94D1
:10499000364F2B013C010E94F2506B017C010E94BA
:1049A000D54E9B01AC01C301B2010E9425509B0171
:1049B000AC010E9426500E94F250C60ED71EE81E7F
:1049C000F91E8F89988DA98DBA8DC816D906EA0669
:1049D000FB0600F18B899C89AD89BE890196A11DDA
:1049E000B11D8B8B9C8BAD8BBE8B2114310439F1A7
:1049F0000A97A105B10518F19FEF291A390AC12CB0
:104A0000D12C760181E090E0A0E0B0E08B8B9C8B14
:104A1000AD8BBE8B9AE0492E512C612C712CC701B5
:104A2000B601A30192010E94EA4F672B682B692B04
:104A300051F4101644F469017A010150F0CFC12CF1
:104A4000D12C7601E7CF4B895C896D897E89C401C1
:104A500067DD002309F43EC05E0191E1A90EB11C9F
:104A6000102FBA8AA98A8AE0482E512C612C712C09
:104A7000115068F0C701B601A30192010E94EA4FEC
:104A8000605DD5016E935D0169017A01F1CF802FE0
:104A900090E0BC0160957095E989FA89E81BF90BF3
:104AA00031978EE2808344275527461B570BE1E15F
:104AB000F0E0EC0FFD1F6E0F7F1FC401CCDCD401B2
:104AC00094962D913C919597820F931F95969C9368
:104AD0008E93949737FE23C06CE673E0C40172DDB9
:104AE0006627772762197309C401E2DC6A960FB65C
:104AF000F894DEBF0FBECDBFDF91CF911F910F9114
:104B0000FF90EF90DF90CF90BF90AF909F908F90ED
:104B10007F906F905F904F903F902F900895211459
:104B2000310421F365E6C4017BDCB101DDCF10E087
:104B300000E011CE0081118166E773E001151105D7
:104B400009F418CE69E773E0C4013CDDD401969600
:104B50008C9196978F5F96968C93C40179DDF801BE
:104B600066817781C40143DD6FE574E0C4012ADD0D
:104B7000B401C80180DDD80115968C918823D9F045
:104B8000B8E08B02C0011124080F191F68E673E01A
:104B90000115110511F469E673E0C40113DD011577
:104BA0001105D9F6F40186A1815086A3C40150DD18
:104BB00067E773E0DFCD10E000E0EDCF6081718149
:104BC000C40115DD93CFC080D180E280F3806DE217
:104BD000C40126DCB701A601C401A2DC87CF408155
:104BE000518162817381F8CF80819181A281B381EB
:104BF0006DE773E0892B8A2B8B2B09F0BBCD62E824
:104C000073E0B8CDEF92FF920F931F93CF93DF9392
:104C1000EC017B018A01BA0135DB81110AC0CE01AA
:104C200017DBCE01DF91CF911F910F91FF90EF9095
:104C300008951D830C83B701888199810E947B525E
:104C4000F0CFFB0101900020E9F73197AF01461B3F
:104C5000570BD8CF0F931F93CF93DF93CDB7DEB70A
:104C600062970FB6F894DEBF0FBECDBF8C01CB01AB
:104C7000F8011182108213821282158214824AE096
:104C8000BE016F5F7F4F0E94464CBE016F5F7F4F3A
:104C9000C801D7DF62960FB6F894DEBF0FBECDBF56
:104CA000DF91CF911F910F910895EF92FF920F9393
:104CB0001F93CF93DF93CDB7DEB7A1970FB6F894CC
:104CC000DEBF0FBECDBF7C01CB01BA01F70111825F
:104CD000108213821282158214828E010F5F1F4F81
:104CE00021E043E00E94DE4A009781F0BC01C70149
:104CF000A8DFA1960FB6F894DEBF0FBECDBFDF913F
:104D0000CF911F910F91FF90EF900895C701A0DA06
:104D1000F0CFCF93DF93EC01FB018617970741F0AB
:104D2000608171816115710539F0448155816ADFB7
:104D3000CE01DF91CF9108958BDAFACFFC01118279
:104D400010821382128215821482E3CFCF93DF93F5
:104D5000EC01FB0184819581892B19F081E393E1BA
:104D6000D8DF61E373E1CE01E9DFCE01DF91CF91BE
:104D70000895CF93DF93EC01FB0184819581892B0A
:104D800019F08DE393E1C5DF6DE373E1CE01D6DF6A
:104D9000CE01DF91CF910895CF93DF93EC01FB011A
:104DA00084819581892B19F087E393E1B2DF67E372
:104DB00073E1CE01C3DFCE01DF91CF910895CF9390
:104DC000DF93EC01FB0184819581892B19F089E443
:104DD00093E19FDF69E473E1CE01B0DFCE01DF91A3
:104DE000CF910895CF93DF93EC01FB0184819581EE
:104DF000892B19F08FE493E18CDF6FE473E1CE012E
:104E00009DDFCE01DF91CF9108958F929F92AF9257
:104E1000BF92CF92DF92EF92FF921F93CF93DF93D7
:104E2000CDB7DEB72C970FB6F894DEBF0FBECDBF5F
:104E3000182F0E94901A6B017C01C092C405D09279
:104E4000C505E092C605F092C7050E94901A4B0175
:104E50005C018092C0059092C105A092C205B092FB
:104E6000C30526E636E640E052E4C701B6010E94DB
:104E7000D14E87FF51C010922D0610922C0611239F
:104E800009F45EC026E636E640E052E4C501B4010E
:104E90000E94D14E87FF66C083E090E090932B067E
:104EA00080932A06B701A601CE010196FEDEBE015F
:104EB0006F5F7F4FCE01079695DFCE010796DAD957
:104EC000CE010196D7D94091C0055091C10560919E
:104ED000C2057091C305CE010196E7DEBE016F5F8A
:104EE0007F4FCE01079658DFCE010796C3D9CE017A
:104EF0000196C0D92C960FB6F894DEBF0FBECDBF79
:104F0000DF91CF911F91FF90EF90DF90CF90BF90F6
:104F1000AF909F908F90089520E030E048E252E4F7
:104F2000C701B6010E941E5118163CF481E090E0C2
:104F300090932D0680932C06A2CF82E090E0F8CFCC
:104F400080912A0690912B06039709F0ABCF20E0C1
:104F500030E048E252E4C501B4010E941E51181627
:104F60000CF0A0CF84E090E099CFCF93DF93EC01D9
:104F7000FB0184819581892B19F085E593E1C9DED8
:104F800065E573E1CE01DADECE01DF91CF910895C0
:104F9000CF93DF93EC01FB0184819581892B19F07C
:104FA0008BE593E1B6DE6BE573E1CE01C7DECE01A2
:104FB000DF91CF910895CF93DF93EC01FB018481C2
:104FC0009581892B19F081E693E1A3DE61E673E117
:104FD000CE01B4DECE01DF91CF910895CF93DF9360
:104FE000EC01FB0184819581892B19F087E693E11F
:104FF00090DE67E673E1CE01A1DECE01DF91CF91B5
:105000000895CF93DF93EC01FB0184819581892B77
:1050100019F089E793E17DDE69E773E1CE018EDE69
:10502000CE01DF91CF910895CF93DF93EC01FB0187
:1050300084819581892B19F08FE793E16ADE6FE710
:1050400073E1CE017BDECE01DF91CF9108950F9306
:105050001F93CF93DF9300D000D0CDB7DEB78C0184
:10506000FB0184819581892B19F085E893E151DE5C
:1050700065E873E1CE01019661DE65E873E1C80180
:105080005DDECE010196F6D8C80126960FB6F894DB
:10509000DEBF0FBECDBFDF91CF911F910F9108955D
:1050A000FC01118210821382128215821482611512
:1050B000710549F0FB0101900020E9F73197AF013C
:1050C000461B570B9FCD0895BF92CF92DF92EF9270
:1050D000FF920F931F93CF93DF9300D000D01F92C6
:1050E0001F92CDB7DEB78C016FE573E0D9DFF12CED
:1050F000E12C8CE2B82E8091BC059091BD05E8169C
:10510000F9061CF58091A0068823D9F0B801CE01DC
:10511000019614DEB701CE0101960FD96C01BF8252
:10512000188641E050E0BE01695F7F4FD3D88111FE
:1051300002C0C6018DD8B601C801EBDDCE010196D3
:1051400099D88FEFE81AF80AD6CFC80128960FB67B
:10515000F894DEBF0FBECDBFDF91CF911F910F91AD
:10516000FF90EF90DF90CF90BF900895BF92CF92C5
:10517000DF92EF92FF920F931F93CF93DF9300D0B4
:1051800000D01F921F92CDB7DEB78C016FE573E0A0
:1051900087DFF12CE12C8CE2B82E8091BC05909138
:1051A000BD05E816F9061CF58091A00681111BC00B
:1051B000B801CE010196C2DDB701CE010196BDD87E
:1051C0006C01BF82188641E050E0BE01695F7F4FED
:1051D00081D8811102C0C6013BD8B601C80199DD52
:1051E000CE01019647D88FEFE81AF80AD6CFC8014A
:1051F00028960FB6F894DEBF0FBECDBFDF91CF91DA
:105200001F910F91FF90EF90DF90CF90BF90089586
:10521000EF92FF920F931F93CF93DF93CDB7DEB73B
:105220002C970FB6F894DEBF0FBECDBF8091B805A6
:105230009091B905E090BC05F090BD05892B59F41B
:1052400001E010E0E016F1060CF47EC00E94831924
:105250000F5F1F4FF7CF8091B8059091B9050E945D
:1052600083198091B8059091B90501969093B9057D
:105270008093B8058091B8059091B905E816F906B4
:105280000CF062C081E08093B7051092B9051092CE
:10529000B805CE01079618DFBE01695F7F4FCE01CA
:1052A0000196C2DECE0101960E943A21CE010796F8
:1052B0000E943A21CE01079659DFBE01695F7F4FF8
:1052C000CE0101969EDECE0101960E943A21CE01CA
:1052D00007960E943A210E948B02BC01990F880B0D
:1052E000990B0E94D74E20E030E040E85AE30E943C
:1052F000364F2AE037ED43E25DE30E9425502DEE64
:1053000033ED41E75BE30E948A502AED31EA4CED30
:1053100050E40E948A50F12CE12C870121E044E006
:105320000E94DE4AB701CE010796BADEBE01695F70
:105330007F4FCE0101960ADDCE0101960E943A21EF
:10534000CE0107960E943A218091B705811104C0D1
:1053500088E099E20E9464022C960FB6F894DEBFB2
:105360000FBECDBFDF91CF911F910F91FF90EF90B6
:105370000895CF92DF92EF92FF920F931F93CF93F6
:10538000DF9300D01F92CDB7DEB78C016B017A019D
:105390000E94D5050F3F110509F030F519820A83E7
:1053A0001B8263E070E0CE0101960E94B605A70162
:1053B00070E060E0C6010E946052E114F10421F047
:1053C000B701C6010E94B6050E94D005C7010F9023
:1053D0000F900F900F90DF91CF911F910F91FF9041
:1053E000EF90DF90CF90089517FD0BC019820A83CC
:1053F00033E0169507953A95E1F7007E08600B8338
:10540000D0CFC80126E0969587952A95E1F7807E52
:1054100019830A830115104C18F480618B83C1CF66
:105420008861FCCF1F93CF93DF931F92CDB7DEB778
:10543000182F80E591E00E94A00C812F0E94DA05D0
:1054400027E0129FF0011124EC5CF94F2281338197
:10545000377041E050E0BE016F5F7F4F820F931FB6
:1054600088DF89810F90DF91CF911F910895FC0112
:10547000808D883038F4218D328D232B19F0D2DFC6
:1054800090E008958FEF9FEF0895CF93DF93FC0195
:105490002485283028F08FEF9FEFDF91CF9108957A
:1054A000EC010190F081E02D0084F185E02D19954B
:1054B000892B89F38C85B6DF90E0EFCFCF93DF9314
:1054C0001F92CDB7DEB79B0190E0982F882741E06F
:1054D00050E0BE016F5F7F4F820F931F4ADF8981CB
:1054E0000F90DF91CF910895CF93C82F462F61E0A1
:1054F00070E00E94700C61E070E08C2FDFDF8111A2
:10550000FACFCF910895CF93C82F80E591E00E9404
:10551000A00C68E070E08C2FCF91E6CFCF93C82F1E
:1055200080E591E00E94A00C60E170E08C2FCF91AB
:10553000DBCFCF93DF93EC01888D883018F4EEDF5A
:1055400088E0888FDF91CF91089563E070E0B6CF57
:10555000CF93C82F80E591E00E94A00C8C2FCF91B3
:10556000F4CFEF92FF920F931F93CF937C010CE641
:1055700016E0C0E0F801219131918F01F70184819B
:1055800095812817390729F0CF5FC83099F780E057
:1055900005C08C2FDDDF8431B9F781E0CF911F91F9
:1055A0000F91FF90EF900895CF93DF93EC018C85DE
:1055B0008830C8F4CDDF843189F0882379F08831D0
:1055C00069F021E08C3159F4E881F9810084F1859A
:1055D000E02DCE01199521E0892B09F420E0822FDE
:1055E000DF91CF91089580E0FBCFCF92DF92EF92D1
:1055F000FF92CF93DF93EC018C85883058F483DFE2
:105600000E9425056B017C018C85A2DF811109C0F8
:1056100088E08C87DF91CF91FF90EF90DF90CF9063
:10562000089561E070E080E090E00E94F4040E9440
:105630002505AB01BC014C195D096E097F098D85FB
:105640009E85B0E0A0E0481759076A077B07E0F2A3
:105650008C8564DFDDCFCF93FC01C08D80E591E0C8
:105660000E94A00C60E270E08C2F3EDF62E070E0F0
:105670008C2F24DF84FD15C062E070E08C2F1EDFCC
:1056800083FF0AC048E162E070E08C2F0E94700C3A
:1056900080E090E0CF91089580E591E00E94A00C19
:1056A000E5CF40E162E070E08C2F0E94700C81E059
:1056B000F0CFFB01BA0190E0982F8827A9018E0F47
:1056C0009F1F57CE88E00895EF92FF920F931F938C
:1056D000CF93DF9300D000D0CDB7DEB78C017A0135
:1056E000FC01808D883008F419DFB701CE010196E6
:1056F000E9DFF801808F883090F4F586E486128E19
:10570000118E81E026960FB6F894DEBF0FBECDBF96
:10571000DF91CF911F910F91FF90EF90089580E05E
:10572000F1CF6F927F929F92AF92BF92CF92DF9212
:10573000EF92FF920F931F93CF93DF931F921F92CD
:10574000CDB7DEB7982E7B013A01590122E030E057
:10575000AE014F5F5F4F64E270E0ABDF09811A81F9
:105760001027012710270E0D1F1D98013770C92C17
:10577000D12C60E1C60ED11CDC2CCC24DD0CDD0C60
:10578000DD0CC9018C0D9D1DA9014A0D5B1D413029
:10579000584080F160E078E07B01E21AF30AA7014B
:1057A000B3010E94D20BA5014E195F09B3016E0D22
:1057B0007F1DC6010E94D20B0A0D1B1D19830A838F
:1057C00022E030E0AE014F5F5F4F64E270E0892D70
:1057D0000E943D0C0F900F90DF91CF911F910F9180
:1057E000FF90EF90DF90CF90BF90AF909F907F9011
:1057F0006F900895A501B301DDCFEF92FF921F9343
:10580000CF93DF931F921F92CDB7DEB7182F22E000
:1058100030E0AE014F5F5F4F60E270E04ADFE98049
:10582000FA80FE24EF24FE2422E030E0AE014F5F38
:105830005F4F60E270E0812F3CDF89819A81982779
:1058400089279827E816F90689F487E0189FF00160
:105850001124EC5CF94FF582E482C7010F900F90A0
:10586000DF91CF911F91FF90EF9008957C01DCCFE5
:105870001F93CF93DF93182F80E591E00E94A00C37
:10588000812FBBDFEC01812F60DE873121F08C316D
:1058900011F0D0E0C0E0CE01DF91CF911F910895CB
:1058A000CF93DF93EC018C85883050F451DE873143
:1058B00011F08C3129F48C85DBDF8115984098F349
:1058C000DF91CF910895FC018485883008F4D0CF12
:1058D00090E080E00895CF92DF92EF92FF921F93C5
:1058E000CF93DF93182F7B01EA014130584010F02D
:1058F000C0E0D8E080E591E00E94A00C812F7DDF20
:105900006C01812F22DE873111F08C3101F5CC162C
:10591000DD0680F380E591E00E94A00C9E01A701C6
:1059200070E060E0812FFDDE60E270E0812FDCDD61
:1059300062E070E0812FC2DD84FD0CC0812F05DEA6
:105940008823B9F080E591E00E94A00CF1CFD0E06F
:10595000C0E0E0CF40E162E070E0812F0E94700C77
:10596000CE01DF91CF911F91FF90EF90DF90CF900C
:105970000895D0E0C0E0F4CF0F931F93CF93DF934F
:105980008C01EA01FC018485883040F4A4DF892B76
:1059900039F481E090E0F80193838283D0E0C0E0A5
:1059A000CE01DF91CF911F910F9108959F92AF92F9
:1059B000BF92CF92DF92EF92FF920F931F93CF93FC
:1059C000DF938C015B01942EE52EFC01C688D788FD
:1059D000F08C80E591E00E94A00C8F2D0EDFC92D88
:1059E000DE2D8C179D0708F4EC019E01A501B60180
:1059F0008F2D97DEF801868997898C0F9D1F978BD5
:105A0000868BCE01DF91CF911F910F91FF90EF9088
:105A1000DF90CF90BF90AF909F900895FF920F932B
:105A20001F93CF93DF931F921F92CDB7DEB7F82E4F
:105A300022E030E0AE014F5F5F4F66E270E039DE9A
:105A400009811A8110270127102722E030E0AE01DA
:105A50004F5F5F4F66E270E08F2D2BDE89819A8168
:105A60009827892798270817190749F4C8010F9024
:105A70000F90DF91CF911F910F91FF9008958C01AE
:105A8000E4CF1F93CF93DF93182F87E0189FE00197
:105A90001124CC5CD94F88819981009759F480E515
:105AA00091E00E94A00C812FB9DF2E81821B910909
:105AB00099838883DF91CF911F91089590E080E0D2
:105AC0000895FC018485883008F4DBCF90E080E005
:105AD00008953F924F925F926F927F928F929F9222
